{
  "_format": "hh-sol-artifact-1",
  "contractName": "ArcFXRouter",
  "sourceName": "contracts/ArcFXRouter.sol",
  "abi": [
    {
      "inputs": [
        {
          "internalType": "address",
          "name": "_factory",
          "type": "address"
        }
      ],
      "stateMutability": "nonpayable",
      "type": "constructor"
    },
    {
      "inputs": [],
      "name": "ReentrancyGuardReentrantCall",
      "type": "error"
    },
    {
      "inputs": [
        {
          "internalType": "address",
          "name": "token",
          "type": "address"
        }
      ],
      "name": "SafeERC20FailedOperation",
      "type": "error"
    },
    {
      "inputs": [
        {
          "internalType": "address",
          "name": "tokenA",
          "type": "address"
        },
        {
          "internalType": "address",
          "name": "tokenB",
          "type": "address"
        },
        {
          "internalType": "uint256",
          "name": "amountA",
          "type": "uint256"
        },
        {
          "internalType": "uint256",
          "name": "amountB",
          "type": "uint256"
        },
        {
          "internalType": "address",
          "name": "to",
          "type": "address"
        }
      ],
      "name": "addLiquidity",
      "outputs": [
        {
          "internalType": "uint256",
          "name": "liquidity",
          "type": "uint256"
        }
      ],
      "stateMutability": "nonpayable",
      "type": "function"
    },
    {
      "inputs": [],
      "name": "factory",
      "outputs": [
        {
          "internalType": "address",
          "name": "",
          "type": "address"
        }
      ],
      "stateMutability": "view",
      "type": "function"
    },
    {
      "inputs": [
        {
          "internalType": "address",
          "name": "tokenIn",
          "type": "address"
        },
        {
          "internalType": "address",
          "name": "tokenOut",
          "type": "address"
        },
        {
          "internalType": "uint256",
          "name": "amountIn",
          "type": "uint256"
        }
      ],
      "name": "getAmountOut",
      "outputs": [
        {
          "internalType": "uint256",
          "name": "",
          "type": "uint256"
        }
      ],
      "stateMutability": "view",
      "type": "function"
    },
    {
      "inputs": [
        {
          "internalType": "address",
          "name": "tokenA",
          "type": "address"
        },
        {
          "internalType": "address",
          "name": "tokenB",
          "type": "address"
        },
        {
          "internalType": "uint256",
          "name": "liquidity",
          "type": "uint256"
        },
        {
          "internalType": "address",
          "name": "to",
          "type": "address"
        }
      ],
      "name": "removeLiquidity",
      "outputs": [
        {
          "internalType": "uint256",
          "name": "amountA",
          "type": "uint256"
        },
        {
          "internalType": "uint256",
          "name": "amountB",
          "type": "uint256"
        }
      ],
      "stateMutability": "nonpayable",
      "type": "function"
    },
    {
      "inputs": [
        {
          "internalType": "uint256",
          "name": "amountIn",
          "type": "uint256"
        },
        {
          "internalType": "uint256",
          "name": "amountOutMin",
          "type": "uint256"
        },
        {
          "internalType": "address[]",
          "name": "path",
          "type": "address[]"
        },
        {
          "internalType": "address",
          "name": "to",
          "type": "address"
        },
        {
          "internalType": "uint256",
          "name": "deadline",
          "type": "uint256"
        }
      ],
      "name": "swapExactTokensForTokens",
      "outputs": [
        {
          "internalType": "uint256",
          "name": "amountOut",
          "type": "uint256"
        }
      ],
      "stateMutability": "nonpayable",
      "type": "function"
    }
  ],
  "bytecode": "0x60a0346100a957601f610c7738819003918201601f19168301916001600160401b038311848410176100ae578084926020946040528339810103126100a957516001600160a01b03811681036100a95760017f9b779b17422d0df92223018b32b4d1fa46e071723d6817e2486d003becc55f0055608052604051610bb290816100c58239608051818181606d01528181610134015281816105050152818161075901526109c60152f35b600080fd5b634e487b7160e01b600052604160045260246000fdfe6040608081526004908136101561001557600080fd5b600091823560e01c90816335d37664146106c957816338ed1739146104165781634aa06652146103dd5781634b2fc7bb146100a0575063c45a01551461005a57600080fd5b3461009c578160031936011261009c57517f00000000000000000000000000000000000000000000000000000000000000006001600160a01b03168152602090f35b5080fd5b83833461009c5760a036600319011261009c576100bb61088d565b926100c46108a8565b6084356001600160a01b0381811693606435939092604435908690036103d9576100ec610a9f565b818316898416109889156103d35791985b156103cd5793945b865163298d501f60e11b81526001600160a01b03808416868301908152908b166020828101919091529a9193907f00000000000000000000000000000000000000000000000000000000000000008616908c90869081906040010381845afa948515610312578688938d938f9385996103ae575b508d838a161561031c575b505090806101dd92169561019a8c30338a610acf565b16946101a88c303389610acf565b8c5163095ea7b360e01b8082526001600160a01b038a16968201968752602087018d9052959094859384928391604090910190565b03925af1801561031257908c92916102f5575b5089519081526001600160a01b038516878201908152602081018a90529092839182908d90829060400103925af180156102eb57928992606495928c9897956102be575b50895198899788966321ec87bf60e21b885287015260248601526044850152165af19283156102b357809361027e575b50506001600080516020610b5d8339815191525551908152f35b909192508382813d83116102ac575b61029781836108d4565b810103126102a9575051908380610264565b80fd5b503d61028d565b8251903d90823e3d90fd5b6102dd90893d8b116102e4575b6102d581836108d4565b81019061097c565b508c610234565b503d6102cb565b88513d8b823e3d90fd5b61030b90833d85116102e4576102d581836108d4565b508c6101f0565b8a513d8d823e3d90fd5b5163e343361560e01b81526001600160a01b0383811697820197885288166020880152919850909492938593849003604001925083915af19081156103a4578b6101dd87808a958f958691610377575b50989192508d610184565b6103979150853d871161039d575b61038f81836108d4565b81019061090c565b3861036c565b503d610385565b89513d8c823e3d90fd5b6103c6919950843d861161039d5761038f81836108d4565b9738610179565b94610105565b986100fd565b8780fd5b50503461009c57606036600319011261009c5760209061040f6103fe61088d565b6104066108a8565b60443591610994565b9051908152f35b83833461009c5760a036600319011261009c5782356024936044359067ffffffffffffffff8083116106c557366023840112156106c557828201359081116106c55736878260051b850101116106c55761046e6108be565b92610477610a9f565b4260843510610699576002821061066857811561065657610499888201610968565b9160001981019080821161064457811015610632578861050099926104c29260051b0101610968565b865163298d501f60e11b81526001600160a01b038481168683019081529281166020848101919091529a91969093909290918b918891829160400190565b0381867f0000000000000000000000000000000000000000000000000000000000000000165afa9586156102eb578996610613575b5061058b8a8885808a169761054b89151561092b565b16986105598230338d610acf565b8b5163095ea7b360e01b81526001600160a01b0390911689820190815260208101929092529283918291604090910190565b03818d8b5af180156103a45792608495928c989795928c956105f6575b508a51998a9889976379f3754560e11b8952880152818701523560448601521660648401525af19283156102b357809361027e5750506001600080516020610b5d8339815191525551908152f35b61060c908a3d8c116102e4576102d581836108d4565b508d6105a8565b61062b9196508a3d8c1161039d5761038f81836108d4565b948a610535565b634e487b7160e01b8852603284528888fd5b634e487b7160e01b8952601185528989fd5b634e487b7160e01b8752603283528787fd5b855162461bcd60e51b8152602081850152600c818a01526b0929cac82989288bea082a8960a31b6044820152606490fd5b855162461bcd60e51b81526020818501526007818a0152661156141254915160ca1b6044820152606490fd5b8580fd5b8391503461009c57608036600319011261009c576106e561088d565b906106ee6108a8565b906106f76108be565b91610700610a9f565b6001600160a01b038181168582161094909161075491602091908715610887575b895163298d501f60e11b81526001600160a01b039182168782019081529290911660208301529283918291604090910190565b0381857f0000000000000000000000000000000000000000000000000000000000000000165afa90811561087d57918793916107d8969593889161085e575b5016906107a182151561092b565b83516305fe138b60e01b81526044359181019182526001600160a01b03909316602082015291948592839188918391604090910190565b03925af19283156108535780928194610818575b50501561081357905b6001600080516020610b5d8339815191525582519182526020820152f35b6107f5565b85809295508194503d831161084c575b61083281836108d4565b81010312610848576020825192015192856107ec565b8280fd5b503d610828565b8451903d90823e3d90fd5b610877915060203d60201161039d5761038f81836108d4565b89610793565b87513d88823e3d90fd5b90610721565b600435906001600160a01b03821682036108a357565b600080fd5b602435906001600160a01b03821682036108a357565b606435906001600160a01b03821682036108a357565b90601f8019910116810190811067ffffffffffffffff8211176108f657604052565b634e487b7160e01b600052604160045260246000fd5b908160209103126108a357516001600160a01b03811681036108a35790565b1561093257565b60405162461bcd60e51b815260206004820152600e60248201526d1413d3d317d393d517d193d5539160921b6044820152606490fd5b356001600160a01b03811681036108a35790565b908160209103126108a3575180151581036108a35790565b60405163298d501f60e11b81526001600160a01b038281166004830152928316602482015260209391929084816044817f000000000000000000000000000000000000000000000000000000000000000086165afa908115610a6d57600091610a82575b5016918215610a79576040516378a051ad60e11b815260048101929092526001600160a01b03166024820152908290829060449082905afa918215610a6d57600092610a4357505090565b90809250813d8311610a66575b610a5a81836108d4565b810103126108a3575190565b503d610a50565b6040513d6000823e3d90fd5b50505050600090565b610a999150853d871161039d5761038f81836108d4565b386109f8565b600080516020610b5d8339815191526002815414610abd5760029055565b604051633ee5aeb560e01b8152600490fd5b6040516323b872dd60e01b60009081526001600160a01b03938416600452938316602452604494909452909160209060648180855af1600160005114811615610b3c575b83604052600060605215610b2657505050565b635274afe760e01b835216600482015260249150fd5b6001811516610b5257813b15153d151616610b13565b833d6000823e3d90fdfe9b779b17422d0df92223018b32b4d1fa46e071723d6817e2486d003becc55f00a26469706673582212202b8e74f9c98dd34cf4d23b57e04dae00ee066b0aeca85c6147e816d147c5bfcd64736f6c63430008180033",
  "linkReferences": {},
  "deployedLinkReferences": {}
}