{
  "_format": "hh-sol-artifact-1",
  "contractName": "ArcFXFactory",
  "sourceName": "contracts/ArcFXFactory.sol",
  "abi": [
    {
      "inputs": [
        {
          "internalType": "address",
          "name": "_treasury",
          "type": "address"
        }
      ],
      "stateMutability": "nonpayable",
      "type": "constructor"
    },
    {
      "anonymous": false,
      "inputs": [
        {
          "indexed": true,
          "internalType": "address",
          "name": "token0",
          "type": "address"
        },
        {
          "indexed": true,
          "internalType": "address",
          "name": "token1",
          "type": "address"
        },
        {
          "indexed": false,
          "internalType": "address",
          "name": "pool",
          "type": "address"
        },
        {
          "indexed": false,
          "internalType": "uint256",
          "name": "",
          "type": "uint256"
        }
      ],
      "name": "PoolCreated",
      "type": "event"
    },
    {
      "inputs": [
        {
          "internalType": "uint256",
          "name": "",
          "type": "uint256"
        }
      ],
      "name": "allPools",
      "outputs": [
        {
          "internalType": "address",
          "name": "",
          "type": "address"
        }
      ],
      "stateMutability": "view",
      "type": "function"
    },
    {
      "inputs": [],
      "name": "allPoolsLength",
      "outputs": [
        {
          "internalType": "uint256",
          "name": "",
          "type": "uint256"
        }
      ],
      "stateMutability": "view",
      "type": "function"
    },
    {
      "inputs": [
        {
          "internalType": "address",
          "name": "tokenA",
          "type": "address"
        },
        {
          "internalType": "address",
          "name": "tokenB",
          "type": "address"
        }
      ],
      "name": "createPool",
      "outputs": [
        {
          "internalType": "address",
          "name": "pool",
          "type": "address"
        }
      ],
      "stateMutability": "nonpayable",
      "type": "function"
    },
    {
      "inputs": [
        {
          "internalType": "address",
          "name": "",
          "type": "address"
        },
        {
          "internalType": "address",
          "name": "",
          "type": "address"
        }
      ],
      "name": "getPool",
      "outputs": [
        {
          "internalType": "address",
          "name": "",
          "type": "address"
        }
      ],
      "stateMutability": "view",
      "type": "function"
    },
    {
      "inputs": [],
      "name": "treasury",
      "outputs": [
        {
          "internalType": "address",
          "name": "",
          "type": "address"
        }
      ],
      "stateMutability": "view",
      "type": "function"
    }
  ],
  "bytecode": "0x60803461007457601f61322a38819003918201601f19168301916001600160401b038311848410176100795780849260209460405283398101031261007457516001600160a01b0381169081900361007457600280546001600160a01b03191691909117905560405161319a90816100908239f35b600080fd5b634e487b7160e01b600052604160045260246000fdfe604060808152600490813610156200001657600080fd5b600091823560e01c90816341d1de9714620004df578163531aa03e146200048e57816361d027b31462000463578163e34336151462000083575063efde4e64146200006057600080fd5b346200007f57816003193601126200007f576020906001549051908152f35b5080fd5b8383346200007f57806003193601126200007f57620000a16200057a565b620000ab62000596565b906001600160a01b039081831682821680821462000420571015620004175781905b16908115620003de57818552602095858752818587209416938487528752818587205416620003a65784516395d89b4160e01b80825287828481885afa9182156200037c57889262000386575b50865190815287818481895afa9081156200037c5760288a89664146582d4c502d60c81b9594620001fd948d9162000355575b50620001ed8251966a020b931a32c1026281016960ad1b85890152620001d3815191868101926200018381602b8d0186620005e6565b8a0195602f60f81b602b880152620001be602c8c88518b8a019a620001ad828d86840190620005e6565b01038d600c82019052018c620005ad565b519a8b978801525180926027880190620005e6565b840191602d60f81b602784015251809386840190620005e6565b01036008810185520183620005ad565b8360025416875192612abd928385019385851067ffffffffffffffff861117620003425785949392620002526080938f8e8e60a0928f62000261988d620006a890398b528a015288015260a087019062000680565b90858203606087015262000680565b920152039087f08015620003385782169583815280885285812085825288528581206bffffffffffffffffffffffff60a01b90888282541617905581895286822085835289528787832091825416179055600154916801000000000000000083101562000325575050806001620002dc92016001556200052c565b819291549060031b9187831b921b19161790557febbbe9dc3a19d2f959ac76ac0372b4983cdfb945f5d6aef4873c36fabb2ba8aa8360015481519087825288820152a351908152f35b634e487b7160e01b825260419052602490fd5b85513d88823e3d90fd5b634e487b7160e01b8c526041875260248cfd5b6200037591503d808f833e6200036c8183620005ad565b8101906200060b565b8e6200014d565b87513d8a823e3d90fd5b6200039e9192503d808a833e6200036c8183620005ad565b90896200011a565b845162461bcd60e51b8152908101879052601260248201527141726346583a20504f4f4c5f45584953545360701b6044820152606490fd5b835162461bcd60e51b8152602081880152601360248201527241726346583a205a45524f5f4144445245535360681b6044820152606490fd5b918190620000cd565b855162461bcd60e51b81526020818a0152601a60248201527f41726346583a204944454e544943414c5f4144445245535345530000000000006044820152606490fd5b5050346200007f57816003193601126200007f5760025490516001600160a01b039091168152602090f35b5050346200007f57806003193601126200007f5760209181620004b06200057a565b91620004bb62000596565b6001600160a01b039384168252818652828220908416825285522054915191168152f35b90503462000528576020366003190112620005285735916001548310156200052557506200050f6020926200052c565b905491519160018060a01b039160031b1c168152f35b80fd5b8280fd5b600154811015620005645760016000527fb10e2d527612073b26eecdfd717e6a320cf44b4afac2b0732d9fcbe2b7fa0cf60190600090565b634e487b7160e01b600052603260045260246000fd5b600435906001600160a01b03821682036200059157565b600080fd5b602435906001600160a01b03821682036200059157565b90601f8019910116810190811067ffffffffffffffff821117620005d057604052565b634e487b7160e01b600052604160045260246000fd5b60005b838110620005fa5750506000910152565b8181015183820152602001620005e9565b6020818303126200059157805167ffffffffffffffff918282116200059157019082601f8301121562000591578151908111620005d057604051926200065c601f8301601f191660200185620005ad565b8184526020828401011162000591576200067d9160208085019101620005e6565b90565b906020916200069b81518092818552858086019101620005e6565b601f01601f191601019056fe61010060409080825234620006135762002abd803803809162000023828562000618565b833981019060a08183031262000613576200003e816200063c565b916020916200004f8382016200063c565b818601516001600160401b0393908481116200061357816200007391850162000651565b906060840151908582116200061357620000966080916200009e93870162000651565b94016200063c565b93815181811162000513576003908154906001948583811c9316801562000608575b8a841014620005f2578190601f938481116200059c575b508a90848311600114620005355760009262000529575b505060001982851b1c191690851b1782555b8551928311620005135760049586548581811c9116801562000508575b8a821014620004f357908183869594931162000499575b50899184116001146200042e5760009362000422575b505082841b92600019911b1c19161783555b7f9b779b17422d0df92223018b32b4d1fa46e071723d6817e2486d003becc55f005533156200040b5760058054610100600160a81b0319811633600881811b610100600160a81b03169290921790935588516001600160a01b0396909593909290911c86167f8be0079c531659141344cd1fd0a4f28419497f9722a3daafe3b4186f6b6457e0600080a38487169384151580620003ff575b15620003cd5750841695861562000397576080528160a0528651928584838163313ce56760e01b948582525afa80156200038c5786946000916200036a575b5060c052875194859384928352165afa9182156200035f576000926200032b575b505060e052600880546001600160a01b031916919091179055516123da9081620006e38239608051818181610394015281816107db01528181610a0f01528181610e630152818161151d015281816119ad01528181611c3801528181611c8701528181611dcd01528181611e150152611efa015260a0518181816103d80152818161080901528181610a3f01528181611098015281816111d501528181611a3f01528181611cdd01528181611e5d015281816120030152818161204e015261213d015260c05181611280015260e051816112420152f35b6200034f9250803d1062000357575b62000346818362000618565b810190620006c7565b388062000254565b503d6200033a565b84513d6000823e3d90fd5b620003859150853d8711620003575762000346818362000618565b3862000233565b88513d6000823e3d90fd5b875162461bcd60e51b8152808301879052601060248201526f496e76616c696420747265617375727960801b6044820152606490fd5b62461bcd60e51b8152828101879052600e60248201526d496e76616c696420746f6b656e7360901b6044820152606490fd5b508584161515620001f4565b8551631e4fbdf760e01b8152600081840152602490fd5b0151915038806200014a565b9190859450601f19841692886000528a6000209360005b8c82821062000482575050851162000467575b50505050811b0183556200015c565b01519060f884600019921b161c191690553880808062000458565b838501518755899890960195938401930162000445565b909192935087600052896000208380870160051c8201928c8810620004e9575b9188918897969594930160051c01915b828110620004d957505062000134565b60008155879650889101620004c9565b92508192620004b9565b602288634e487b7160e01b6000525260246000fd5b90607f16906200011d565b634e487b7160e01b600052604160045260246000fd5b015190503880620000ee565b60008681528c8120899550929190601f198516908e5b8282106200058457505084116200056b575b505050811b01825562000100565b015160001983871b60f8161c191690553880806200055d565b8385015186558b979095019493840193018e6200054b565b909150846000528a6000208480850160051c8201928d8610620005e8575b918991869594930160051c01915b828110620005d8575050620000d7565b60008155859450899101620005c8565b92508192620005ba565b634e487b7160e01b600052602260045260246000fd5b92607f1692620000c0565b600080fd5b601f909101601f19168101906001600160401b038211908210176200051357604052565b51906001600160a01b03821682036200061357565b919080601f84011215620006135782516001600160401b0381116200051357602090604051926200068c83601f19601f850116018562000618565b818452828287010111620006135760005b818110620006b357508260009394955001015290565b85810183015184820184015282016200069d565b9081602091031262000613575160ff8116810362000613579056fe6080604081815260048036101561001557600080fd5b600092833560e01c90816306fdde031461161a575080630902f1ac146115f5578063095ea7b31461154c5780630fc63d101461150857806316ef675e146114e257806318160ddd146114c357806319e36f3b146114a457806323b872dd146113b15780632a58b330146113925780632b7f092314611329578063313ce5671461130d5780633f4ba83a146112a457806350894e9f1461126657806357cbf16c146112285780635c975abb146112045780635f64b55b146111c057806361d027b31461119757806367a6c4401461117b57806370a08231146108fd578063715018a61461111a5780638456cb59146110bf5780638468cc0014610e1f5780638da5cb5b14610df257806395d89b4114610cec578063a3e2b49514610c7f578063a5cdc8fc14610ba0578063a9059cbb14610b6f578063be37822814610b53578063c721946014610939578063d2258beb146108fd578063d73792a9146108df578063d798f86e146106c0578063dc5fa6c5146106a1578063dd62ed3e14610658578063e3412e3d1461033f578063f0f4426014610296578063f140a35a146102645763f2fde38b146101c557600080fd5b34610260576020366003190112610260576101de611755565b6101e66121b4565b6001600160a01b0381811693909290841561024a57505060058054610100600160a81b03198116600893841b610100600160a81b031617909155901c167f8be0079c531659141344cd1fd0a4f28419497f9722a3daafe3b4186f6b6457e08380a380f35b51631e4fbdf760e01b8152908101859052602490fd5b8280fd5b5091346102935781600319360112610293575061028c602092610285611770565b903561198f565b9051908152f35b80fd5b5034610260576020366003190112610260576102b0611755565b906102b96121b4565b6001600160a01b03918216928315610309575050816008549182167f4ab5be82436d353e61ca18726e984e561f5c1cc7c6d38b29d2553c790434705a8580a36001600160a01b0319161760085580f35b906020606492519162461bcd60e51b8352820152601060248201526f496e76616c696420747265617375727960801b6044820152fd5b5091903461065457602092836003193601126102605761035d611755565b92610366611b47565b61036e611b77565b82516370a0823160e01b8082523082850152909290916001600160a01b039087856024817f000000000000000000000000000000000000000000000000000000000000000086165afa948515610615578195610621575b50855193845230838501528784602481857f0000000000000000000000000000000000000000000000000000000000000000165afa9384156106155781946105e2575b506006549061041782876118e7565b916007549361042685886118e7565b94841515806105d9575b610439906118f4565b60025492836105a957505061045661045186866117be565b612264565b995b8a1561055a571694851561054357509284927f5141ecc84a35c12ca2bf76bb33d393bd2fc22f906da0743534beef4ae63c6c8e97957f64b83944e79c3ce8d4c297411de637c3e102d064677aac0c163976ebdcd6f50e936104bb8c8c9a98611982565b600255818152808d528881208c81540190557fddf252ad1be2c89b69c2b068fc378daa952ba7f163c4a11628f55a4df523b3ef8d8d8b51908152a3856006558460075561051e8a8851938493846040919493926060820195825260208201520152565b0390a2825191825286820152a160016000805160206123858339815191525551908152f35b885163ec442f0560e01b8152908101839052602490fd5b895162461bcd60e51b81528088018d90526024808201527f41726346583a20494e53554646494349454e545f4c49515549444954595f4d496044820152631395115160e21b6064820152608490fd5b6105bf6105ca916105ba86896117be565b6117e7565b916105ba85896117be565b90818082109118021899610458565b50851515610430565b9093508781813d831161060e575b6105fa8183611786565b8101031261060a57519238610408565b8380fd5b503d6105f0565b508551903d90823e3d90fd5b9094508781813d831161064d575b6106398183611786565b81010312610649575193386103c5565b8480fd5b503d61062f565b5080fd5b50503461065457806003193601126106545780602092610676611755565b61067e611770565b6001600160a01b0391821683526001865283832091168252845220549051908152f35b5050346106545781600319360112610654576020906006549051908152f35b5082903461065457602080600319360112610260576106dd611755565b6106e5611b47565b30845283825284842054906106fb82151561188f565b6002549461071f610712876105ba600654876117be565b966105ba600754866117be565b94861515806108d6575b6107329061188f565b30156108c1573082528185528782205490848210610896575090837f1dc8bb69df2b8e91fbdcbfcf93d951b3f0000f085a95fe3f7946d6161439245d93923083528287520388822055836002540360025587518481527fddf252ad1be2c89b69c2b068fc378daa952ba7f163c4a11628f55a4df523b3ef863092a36107b9866006546118e7565b6006556107c8856007546118e7565b6007556001600160a01b039061080187827f000000000000000000000000000000000000000000000000000000000000000085166121e3565b61082e8682847f0000000000000000000000000000000000000000000000000000000000000000166121e3565b87518781526020810187905260408101949094521691606090a27f5141ecc84a35c12ca2bf76bb33d393bd2fc22f906da0743534beef4ae63c6c8e84600654600754825191825284820152a16001600080516020612385833981519152558351928352820152f35b885163391434e360e21b81523091810191825260208201929092526040810185905281906060010390fd5b602491885191634b637e8f60e11b8352820152fd5b50851515610729565b50503461065457816003193601126106545760209051620186a08152f35b5050346106545760203660031901126106545760209061028c61091e611755565b6001600160a01b031660009081526020819052604090205490565b5090346102605760208060031936011261060a57823590610958611b77565b610960611b47565b818552600a815282852093600585019485549561097f60ff8816611850565b60038201549260018060a01b039384600285015416928851996378a051ad60e11b8b5282848c01528460248c0152878b604481305afa9a8b15610b49578c9b610b16575b5083860154809b10610adc5760ff191690556109e090839061198f565b978810610a9957507fef7891eb4834356addb312671a4cd1c2611fdb9d26493f1dbf275bc7ff054f9c939291907f00000000000000000000000000000000000000000000000000000000000000009081841603610a8d5750610a6d60017f0000000000000000000000000000000000000000000000000000000000000000925b0191838354169089611c24565b50541693519485523394a460016000805160206123858339815191525580f35b6001610a6d9192610a60565b865162461bcd60e51b8152908101859052601a60248201527f41726346583a204c494d49545f50524943455f4e4f545f4d45540000000000006044820152606490fd5b895162461bcd60e51b81528085018990526014602482015273141c9a58d9481d185c99d95d081b9bdd081b595d60621b6044820152606490fd5b909a508781813d8311610b42575b610b2e8183611786565b81010312610b3e575199386109c3565b8b80fd5b503d610b24565b8a513d8e823e3d90fd5b5050346106545781600319360112610654576020905160058152f35b505034610654578060031936011261065457602090610b99610b8f611755565b6024359033611a69565b5160018152f35b503461026057602036600319011261026057803591610bbd611b47565b828452600a602052808420916005830190815490610bdd60ff8316611850565b60018501546001600160a01b03949085163303610c5057505060ff191690556002820154600390920154610c159290913391166121e3565b33907f34cf495316dbb07c8286e6c6b35542a47854aaf8050f2dd51ab0347b855582978380a360016000805160206123858339815191525580f35b906020606492519162461bcd60e51b835282015260096024820152682737ba1037bbb732b960b91b6044820152fd5b509034610260576020366003190112610260578060c09383358152600a6020522080549260018060a01b039283600184015416936002840154169060ff600560038601549486015495015416948151968752602087015285015260608401526080830152151560a0820152f35b5091903461065457816003193601126106545780519180938054916001908360011c9260018516948515610de8575b6020958686108114610dd557858952908115610db15750600114610d59575b610d558787610d4b828c0383611786565b519182918261170c565b0390f35b81529295507f8a35acfbc15ff81a39ae7d344fd709f28e8600b4aa8c65c6b64bfe7fe36bd19b5b828410610d9e5750505082610d5594610d4b92820101943880610d3a565b8054868501880152928601928101610d80565b60ff19168887015250505050151560051b8301019250610d4b82610d553880610d3a565b634e487b7160e01b845260228352602484fd5b93607f1693610d1b565b505034610654578160031936011261065457600554905160089190911c6001600160a01b03168152602090f35b5091903461065457606036600319011261065457610e3b611755565b90602493843560443590610e4d611b77565b610e55611b47565b6001600160a01b03948516917f0000000000000000000000000000000000000000000000000000000000000000861683148015611094575b1561106257811561102b5784516323b872dd60e01b885233855230895260448390529560208860648180885af196600197888a511481161561100d575b8188528960605215610ff95750600954908887519160c0830183811067ffffffffffffffff821117610fe7578a60059493928b928352868552602085019033825280848701938c855260608801958c875260808901978c895260a08a019b838d528152600a60205220975188558701925116916bffffffffffffffffffffffff60a01b928382541617905560028601925116908254161790555160038301555187820155019051151560ff801983541691161790557f830e969d66dbd47ac1d3d73aac70805f767a205e4c2e14eea6438ba9b249e550600954958692815194855260208501523393a46000198214610fd5575081016009556000805160206123858339815191525580f35b634e487b7160e01b8452601190528383fd5b634e487b7160e01b8352604189528c83fd5b635274afe760e01b81528581018590528990fd5b8881151661102257853b15153d151616610eca565b503d89823e3d90fd5b845162461bcd60e51b81526020818601526012818a015271125b9cdd59999a58da595b9d081a5b9c1d5d60721b6044820152606490fd5b845162461bcd60e51b8152602081860152600d818a01526c24b73b30b634b2103a37b5b2b760991b6044820152606490fd5b50857f0000000000000000000000000000000000000000000000000000000000000000168314610e8d565b50503461065457816003193601126106545760207f62e78cea01bee320cd4e420270b5ea74000d11b0c9f74754ebdbfc544b05a258916110fd6121b4565b611105611b77565b600160ff19600554161760055551338152a180f35b83346102935780600319360112610293576111336121b4565b60058054610100600160a81b03198116909155819060081c6001600160a01b03167f8be0079c531659141344cd1fd0a4f28419497f9722a3daafe3b4186f6b6457e08280a380f35b50503461065457816003193601126106545760209051601e8152f35b50503461065457816003193601126106545760085490516001600160a01b039091168152602090f35b505034610654578160031936011261065457517f00000000000000000000000000000000000000000000000000000000000000006001600160a01b03168152602090f35b50503461065457816003193601126106545760209060ff6005541690519015158152f35b5050346106545781600319360112610654576020905160ff7f0000000000000000000000000000000000000000000000000000000000000000168152f35b5050346106545781600319360112610654576020905160ff7f0000000000000000000000000000000000000000000000000000000000000000168152f35b50346102605782600319360112610260576112bd6121b4565b6005549060ff8216156112ff575060ff1916600555513381527f5db9ee0a495bf2e6ff9c91a7834c1ba4fdd244a5e8aa4e537bd38aeae4b073aa90602090a180f35b8251638dfc202b60e01b8152fd5b5050346106545781600319360112610654576020905160128152f35b503461026057606036600319011261026057611343611770565b604435939091906001600160a01b03851685036102935750926113799160209461136b611b47565b611373611b77565b35611c24565b9060016000805160206123858339815191525551908152f35b5050346106545781600319360112610654576020906009549051908152f35b508234610293576060366003190112610293576113cc611755565b6113d4611770565b916044359360018060a01b038316808352600160205286832033845260205286832054916000198310611410575b602088610b99898989611a69565b86831061147857811561146157331561144a57508252600160209081528683203384528152918690209085900390558290610b9987611402565b8751634a1406b160e11b8152908101849052602490fd5b875163e602df0560e01b8152908101849052602490fd5b8751637dc7a0d960e11b8152339181019182526020820193909352604081018790528291506060010390fd5b5050346106545781600319360112610654576020906007549051908152f35b5050346106545781600319360112610654576020906002549051908152f35b5050346106545760203660031901126106545760209061028c611503611755565b611807565b505034610654578160031936011261065457517f00000000000000000000000000000000000000000000000000000000000000006001600160a01b03168152602090f35b5034610260578160031936011261026057611565611755565b6024359033156115de576001600160a01b03169182156115c757508083602095338152600187528181208582528752205582519081527f8c5be1e5ebec7d5bd14f71427d1e84f3dd0314c0f7b2291e5b200ac8c7c3b925843392a35160018152f35b8351634a1406b160e11b8152908101859052602490fd5b835163e602df0560e01b8152808401869052602490fd5b8284346102935780600319360112610293575060065460075482519182526020820152f35b929190503461060a578360031936011261060a57600354600181811c9186908281168015611702575b60209586861082146116ef57508488529081156116cd5750600114611674575b610d558686610d4b828b0383611786565b929550600383527fc2575a0e9e593c00f959f8c92f12db2869c3395a3b0502d05e2516446f71f85b5b8284106116ba5750505082610d5594610d4b928201019438611663565b805486850188015292860192810161169d565b60ff191687860152505050151560051b8301019250610d4b82610d5538611663565b634e487b7160e01b845260229052602483fd5b93607f1693611643565b6020808252825181830181905290939260005b82811061174157505060409293506000838284010152601f8019910116010190565b81810186015184820160400152850161171f565b600435906001600160a01b038216820361176b57565b600080fd5b602435906001600160a01b038216820361176b57565b90601f8019910116810190811067ffffffffffffffff8211176117a857604052565b634e487b7160e01b600052604160045260246000fd5b818102929181159184041417156117d157565b634e487b7160e01b600052601160045260246000fd5b81156117f1570490565b634e487b7160e01b600052601260045260246000fd5b6002549081156118495760018060a01b0316600052600060205260406000205490620f4240918281029281840414901517156117d157611846916117e7565b90565b5050600090565b1561185757565b60405162461bcd60e51b815260206004820152601060248201526f4f72646572206e6f742061637469766560801b6044820152606490fd5b1561189657565b60405162461bcd60e51b8152602060048201526024808201527f41726346583a20494e53554646494349454e545f4c49515549444954595f42556044820152631493915160e21b6064820152608490fd5b919082039182116117d157565b156118fb57565b606460405162461bcd60e51b815260206004820152602060248201527f41726346583a20494e53554646494349454e545f494e5055545f414d4f554e546044820152fd5b1561194657565b60405162461bcd60e51b815260206004820152601460248201527320b931a32c1d1024a72b20a624a22faa27a5a2a760611b6044820152606490fd5b919082018092116117d157565b9081159061199d82156118f4565b6119e060018060a01b03809216827f00000000000000000000000000000000000000000000000000000000000000001681149081938215611a3d575b505061193f565b15611a305760065490600754905b6103e58085029485041417156117d157611a0890836117be565b906103e8908181029181830414901517156117d15761184692611a2a91611982565b906117e7565b60075490600654906119ee565b7f00000000000000000000000000000000000000000000000000000000000000001614905038806119d9565b916001600160a01b03808416928315611b2e5716928315611b155760009083825281602052604082205490838210611ae3575091604082827fddf252ad1be2c89b69c2b068fc378daa952ba7f163c4a11628f55a4df523b3ef958760209652828652038282205586815220818154019055604051908152a3565b60405163391434e360e21b81526001600160a01b03919091166004820152602481019190915260448101839052606490fd5b60405163ec442f0560e01b815260006004820152602490fd5b604051634b637e8f60e11b815260006004820152602490fd5b6000805160206123858339815191526002815414611b655760029055565b604051633ee5aeb560e01b8152600490fd5b60ff60055416611b8357565b60405163d93c066560e01b8152600490fd5b15611b9c57565b60405162461bcd60e51b815260206004820152601d60248201527f41726346583a20494e53554646494349454e545f4c49515549444954590000006044820152606490fd5b15611be857565b60405162461bcd60e51b815260206004820152601460248201527320b931a32c1d1025afab20a62aa2afa2a92927a960611b6044820152606490fd5b918215612165576001600160a01b038281167f00000000000000000000000000000000000000000000000000000000000000009091161480801561212f575b611c6c9061193f565b6040516370a0823160e01b81523060048201526020816024817f00000000000000000000000000000000000000000000000000000000000000006001600160a01b03165afa908115611f51576000916120fd575b506040516370a0823160e01b8152306004820152906020826024817f00000000000000000000000000000000000000000000000000000000000000006001600160a01b03165afa918215611f51576000926120c9575b508215611f62575060065492611d2d848710611b95565b60075493600085841115611f5d5750611d4685846118e7565b80958115611d5481156118f4565b856103e88102046103e814861517156117d15782600381020460031417156117d157611d9d611d8d6003611da394026103e888026118e7565b611d978b866118e7565b906117be565b926117be565b91826103e88102046103e814831517156117d157611dcb88926103e8611dfa95021115611be1565b7f00000000000000000000000000000000000000000000000000000000000000006001600160a01b03166121e3565b6040516370a0823160e01b81523060048201526020816024817f00000000000000000000000000000000000000000000000000000000000000006001600160a01b03165afa908115611f5157600091611f1f575b506006556007555b15611ef8577f0000000000000000000000000000000000000000000000000000000000000000915b60408051928352602083018590526001600160a01b03918216939091169133917fcd3829a3813dc3cdd188fd3d01dcf3268c16be2fdd2dd21d0665418816e4606291a47f5141ecc84a35c12ca2bf76bb33d393bd2fc22f906da0743534beef4ae63c6c8e604060065460075482519182526020820152a190565b7f000000000000000000000000000000000000000000000000000000000000000091611e7e565b90506020813d602011611f49575b81611f3a60209383611786565b8101031261176b575138611e4e565b3d9150611f2d565b6040513d6000823e3d90fd5b611d46565b905060075492611f73848710611b95565b600654808311156120c257611f8881846118e7565b80958115611f9681156118f4565b856103e88102046103e814861517156117d15782600381020460031417156117d157611d9d611fcf6003611fd994026103e888026118e7565b611d978b846118e7565b91826103e88102046103e814831517156117d15761200188926103e861203095021115611be1565b7f00000000000000000000000000000000000000000000000000000000000000006001600160a01b03166121e3565b6006556040516370a0823160e01b81523060048201526020816024817f00000000000000000000000000000000000000000000000000000000000000006001600160a01b03165afa908115611f5157600091612090575b50600755611e56565b90506020813d6020116120ba575b816120ab60209383611786565b8101031261176b575138612087565b3d915061209e565b6000611f88565b90916020823d6020116120f5575b816120e460209383611786565b810103126102935750519038611d16565b3d91506120d7565b906020823d602011612127575b8161211760209383611786565b8101031261029357505138611cc0565b3d915061210a565b506001600160a01b038381167f000000000000000000000000000000000000000000000000000000000000000090911614611c63565b60405162461bcd60e51b815260206004820152602160248201527f41726346583a20494e53554646494349454e545f4f55545055545f414d4f554e6044820152601560fa1b6064820152608490fd5b60055460081c6001600160a01b031633036121cb57565b60405163118cdaa760e01b8152336004820152602490fd5b60405163a9059cbb60e01b60009081526001600160a01b039384166004526024949094529260209060448180855af1600160005114811615612244575b836040521561222e57505050565b635274afe760e01b835216600482015260249150fd5b600181151661225a57813b15153d151616612220565b833d6000823e3d90fd5b60018082111561238057612321908083600160801b81101561236e575b80600160401b6004921015612361575b640100000000811015612354575b62010000811015612347575b61010081101561233b575b601081101561232f575b1015612328575b600302811c6122d681856117e7565b01811c6122e381856117e7565b01811c6122f081856117e7565b01811c6122fd81856117e7565b01811c61230a81856117e7565b01811c61231781856117e7565b01901c80926117e7565b8111900390565b811b6122c7565b811c9160021b916122c0565b60081c91811b916122b6565b60101c9160081b916122ab565b60201c9160101b9161229f565b60401c9160201b91612291565b50600160401b9050608084901c612281565b509056fe9b779b17422d0df92223018b32b4d1fa46e071723d6817e2486d003becc55f00a2646970667358221220f0988f96a34803bcbcc5730d96b130c33dafdd389bf9d42585fc251fbb30393064736f6c63430008180033a264697066735822122098e2e0aa5fa6988fce64ac0af47db8cff89498f2cd076558e6fc71818c80201464736f6c63430008180033",
  "linkReferences": {},
  "deployedLinkReferences": {}
}