{
  "_format": "hh-sol-artifact-1",
  "contractName": "ArcFXRouter",
  "sourceName": "contracts/ArcFXRouter.sol",
  "abi": [
    {
      "inputs": [
        {
          "internalType": "address",
          "name": "_factory",
          "type": "address"
        }
      ],
      "stateMutability": "nonpayable",
      "type": "constructor"
    },
    {
      "inputs": [
        {
          "internalType": "address",
          "name": "token",
          "type": "address"
        }
      ],
      "name": "SafeERC20FailedOperation",
      "type": "error"
    },
    {
      "inputs": [
        {
          "internalType": "address",
          "name": "tokenA",
          "type": "address"
        },
        {
          "internalType": "address",
          "name": "tokenB",
          "type": "address"
        },
        {
          "internalType": "uint256",
          "name": "amountADesired",
          "type": "uint256"
        },
        {
          "internalType": "uint256",
          "name": "amountBDesired",
          "type": "uint256"
        },
        {
          "internalType": "uint256",
          "name": "amountAMin",
          "type": "uint256"
        },
        {
          "internalType": "uint256",
          "name": "amountBMin",
          "type": "uint256"
        },
        {
          "internalType": "address",
          "name": "to",
          "type": "address"
        },
        {
          "internalType": "uint256",
          "name": "deadline",
          "type": "uint256"
        }
      ],
      "name": "addLiquidity",
      "outputs": [
        {
          "internalType": "uint256",
          "name": "amountA",
          "type": "uint256"
        },
        {
          "internalType": "uint256",
          "name": "amountB",
          "type": "uint256"
        },
        {
          "internalType": "uint256",
          "name": "liquidity",
          "type": "uint256"
        }
      ],
      "stateMutability": "nonpayable",
      "type": "function"
    },
    {
      "inputs": [],
      "name": "factory",
      "outputs": [
        {
          "internalType": "address",
          "name": "",
          "type": "address"
        }
      ],
      "stateMutability": "view",
      "type": "function"
    },
    {
      "inputs": [
        {
          "internalType": "address",
          "name": "tokenA",
          "type": "address"
        },
        {
          "internalType": "address",
          "name": "tokenB",
          "type": "address"
        },
        {
          "internalType": "uint256",
          "name": "liquidity",
          "type": "uint256"
        },
        {
          "internalType": "uint256",
          "name": "amountAMin",
          "type": "uint256"
        },
        {
          "internalType": "uint256",
          "name": "amountBMin",
          "type": "uint256"
        },
        {
          "internalType": "address",
          "name": "to",
          "type": "address"
        },
        {
          "internalType": "uint256",
          "name": "deadline",
          "type": "uint256"
        }
      ],
      "name": "removeLiquidity",
      "outputs": [
        {
          "internalType": "uint256",
          "name": "amountA",
          "type": "uint256"
        },
        {
          "internalType": "uint256",
          "name": "amountB",
          "type": "uint256"
        }
      ],
      "stateMutability": "nonpayable",
      "type": "function"
    },
    {
      "inputs": [
        {
          "internalType": "uint256",
          "name": "amountIn",
          "type": "uint256"
        },
        {
          "internalType": "uint256",
          "name": "amountOutMin",
          "type": "uint256"
        },
        {
          "internalType": "address[]",
          "name": "path",
          "type": "address[]"
        },
        {
          "internalType": "address",
          "name": "to",
          "type": "address"
        },
        {
          "internalType": "uint256",
          "name": "deadline",
          "type": "uint256"
        }
      ],
      "name": "swapExactTokensForTokens",
      "outputs": [
        {
          "internalType": "uint256[]",
          "name": "amounts",
          "type": "uint256[]"
        }
      ],
      "stateMutability": "nonpayable",
      "type": "function"
    }
  ],
  "bytecode": "0x60a03461007e57601f610bc138819003918201601f19168301916001600160401b038311848410176100835780849260209460405283398101031261007e57516001600160a01b038116810361007e57608052604051610b27908161009a823960805181818160d0015281816102c60152818161037f01526105c90152f35b600080fd5b634e487b7160e01b600052604160045260246000fdfe60406080815260048036101561001457600080fd5b600091823560e01c806338ed1739146104a1578063baa2abde146102f5578063c45a0155146102b15763e8e337001461004c57600080fd5b346102ad576101003660031901126102ad57610066610873565b9061006f61088e565b6044359360643591906001600160a01b0360c435818116929189918490036102a95761009f4260e43510156108a4565b865163298d501f60e11b81526001600160a01b03808a168583019081529087166020828101919091529199919691907f000000000000000000000000000000000000000000000000000000000000000084169088908c9081906040010381845afa9a8b1561029f57859b610280575b50838b16156101d2575b509161015a888b602496946101518f838d9c9b9961013a6084358410156109b6565b61014860a435881015610a0d565b88339116610a64565b84339116610a64565b8851998a95869463e3412e3d60e01b8652850152165af19384156101c8578694610191575b50606095508251948552840152820152f35b9080945081813d83116101c1575b6101a981836108e7565b810103126101bd576060955051923861017f565b8580fd5b503d61019f565b83513d88823e3d90fd5b895163e343361560e01b81526001600160a01b038084168289019081529085166020820152979c9b509596949593949193918891839182908990829060400103925af1908115610276578888979487946101518e9f999561015a9560249a9791610249575b509e5050949650929496975050610118565b61026991508c8d3d1061026f575b61026181836108e7565b81019061094b565b38610237565b503d610257565b89513d87823e3d90fd5b610298919b50883d8a1161026f5761026181836108e7565b993861010e565b8a513d87823e3d90fd5b5080fd5b8280fd5b8382346102a957816003193601126102a957517f00000000000000000000000000000000000000000000000000000000000000006001600160a01b03168152602090f35b5082346104555760e036600319011261045557610310610873565b61031861088e565b936001600160a01b0360a435818116939084900361049d5761037a9495966020916103474260c43510156108a4565b885163298d501f60e11b81526001600160a01b039182168682019081529290911660208301529586918291604090910190565b0381847f0000000000000000000000000000000000000000000000000000000000000000165afa9384156104935790869392918695610469575b50906103d56024928616956103ca87151561096a565b604435903388610a64565b8584519586948593636bcc7c3760e11b85528401525af190811561045f57828092610425575b505061040b6064358310156109b6565b610419608435821015610a0d565b82519182526020820152f35b915091508282813d8311610458575b61043e81836108e7565b8101031261045557506020815191015183806103fb565b80fd5b503d610434565b83513d84823e3d90fd5b60249291955061048a6103d59160203d60201161026f5761026181836108e7565b959192506103b4565b86513d87823e3d90fd5b8480fd5b5090346102ad5760a03660031901126102ad5780359060249360449081359267ffffffffffffffff968785116102ad57366023860112156102ad57848201359788116102ad578085019336828a60051b8801011161086f576064356001600160a01b0381811693918490036101bd5761051e4260843510156108a4565b6105278b61091f565b976105348b51998a6108e7565b8b89526105408c61091f565b99602098898b019b601f1901368d378a51156108075760028e838e5203610819578d156108075761057081610937565b9260019e600110156107f557908a878f9301948a6105c461059088610937565b955163298d501f60e11b81526001600160a01b03938416928101928352929095166020820152909384918291604090910190565b0381887f0000000000000000000000000000000000000000000000000000000000000000165afa9182156107eb57918e979593918a999795938c926107cc575b5084808316996106158b151561096a565b8461061f84610937565b91516378a051ad60e11b81529d8e015216868c01528c8b88818c5afa9a8b156107c0578c9b61078d575b5085358b1061073c578d516001101561072a57938f9a9894606498948f8f9c99958f99958f6106848f9661069197899361068c970152610937565b163390610a64565b610937565b9a519a8b998a98632b7f092360e01b8a5289015216908601528401525af18015610720579083916106f7575b505091908495939551948186019282875251809352850195925b8281106106e45785870386f35b83518752958101959281019284016106d7565b813d8311610719575b61070a81836108e7565b810103126104555781386106bd565b503d610700565b86513d84823e3d90fd5b634e487b7160e01b8c5260328a52858cfd5b8f5162461bcd60e51b8152808b018e90526027818801527f4172634658526f757465723a20494e53554646494349454e545f4f5554505554818901526617d05353d5539560ca1b6064820152608490fd5b909a508c81813d83116107b9575b6107a581836108e7565b810103126107b557519938610649565b8b80fd5b503d61079b565b50508e513d8c823e3d90fd5b6107e49192508d803d1061026f5761026181836108e7565b9038610604565b8e513d8c823e3d90fd5b634e487b7160e01b8a5260328952858afd5b634e487b7160e01b8952603288528489fd5b8c5162461bcd60e51b81528089018b9052602c818701527f4172634658526f757465723a204f4e4c595f4449524543545f50414952535f53818801526b15541413d495115117d6515560a21b6064820152608490fd5b8380fd5b600435906001600160a01b038216820361088957565b600080fd5b602435906001600160a01b038216820361088957565b156108ab57565b60405162461bcd60e51b8152602060048201526014602482015273105c98d196149bdd5d195c8e881156141254915160621b6044820152606490fd5b90601f8019910116810190811067ffffffffffffffff82111761090957604052565b634e487b7160e01b600052604160045260246000fd5b67ffffffffffffffff81116109095760051b60200190565b356001600160a01b03811681036108895790565b9081602091031261088957516001600160a01b03811681036108895790565b1561097157565b60405162461bcd60e51b815260206004820152601b60248201527f4172634658526f757465723a20504f4f4c5f4e4f545f464f554e4400000000006044820152606490fd5b156109bd57565b60405162461bcd60e51b815260206004820152602260248201527f4172634658526f757465723a20494e53554646494349454e545f415f414d4f55604482015261139560f21b6064820152608490fd5b15610a1457565b60405162461bcd60e51b815260206004820152602260248201527f4172634658526f757465723a20494e53554646494349454e545f425f414d4f55604482015261139560f21b6064820152608490fd5b6040516323b872dd60e01b60009081526001600160a01b03938416600452938316602452604494909452909160209060648180855af1600160005114811615610ad1575b83604052600060605215610abb57505050565b635274afe760e01b835216600482015260249150fd5b6001811516610ae757813b15153d151616610aa8565b833d6000823e3d90fdfea2646970667358221220254ecb718f1dcb53b8fabb22c8100c690cc131e9c3d4caa0bcb6c46f2b84093064736f6c63430008180033",
  "linkReferences": {},
  "deployedLinkReferences": {}
}