{
  "_format": "hh-sol-artifact-1",
  "contractName": "ArcMultiFaucet",
  "sourceName": "contracts/ArcMultiFaucet.sol",
  "abi": [
    {
      "inputs": [
        {
          "internalType": "address",
          "name": "initialOwner",
          "type": "address"
        }
      ],
      "stateMutability": "nonpayable",
      "type": "constructor"
    },
    {
      "inputs": [
        {
          "internalType": "address",
          "name": "owner",
          "type": "address"
        }
      ],
      "name": "OwnableInvalidOwner",
      "type": "error"
    },
    {
      "inputs": [
        {
          "internalType": "address",
          "name": "account",
          "type": "address"
        }
      ],
      "name": "OwnableUnauthorizedAccount",
      "type": "error"
    },
    {
      "anonymous": false,
      "inputs": [
        {
          "indexed": true,
          "internalType": "address",
          "name": "user",
          "type": "address"
        },
        {
          "indexed": false,
          "internalType": "uint256",
          "name": "timestamp",
          "type": "uint256"
        }
      ],
      "name": "FaucetClaimed",
      "type": "event"
    },
    {
      "anonymous": false,
      "inputs": [
        {
          "indexed": true,
          "internalType": "address",
          "name": "previousOwner",
          "type": "address"
        },
        {
          "indexed": true,
          "internalType": "address",
          "name": "newOwner",
          "type": "address"
        }
      ],
      "name": "OwnershipTransferred",
      "type": "event"
    },
    {
      "inputs": [],
      "name": "COOLDOWN",
      "outputs": [
        {
          "internalType": "uint256",
          "name": "",
          "type": "uint256"
        }
      ],
      "stateMutability": "view",
      "type": "function"
    },
    {
      "inputs": [
        {
          "internalType": "uint256",
          "name": "",
          "type": "uint256"
        }
      ],
      "name": "amounts",
      "outputs": [
        {
          "internalType": "uint256",
          "name": "",
          "type": "uint256"
        }
      ],
      "stateMutability": "view",
      "type": "function"
    },
    {
      "inputs": [],
      "name": "claim",
      "outputs": [],
      "stateMutability": "nonpayable",
      "type": "function"
    },
    {
      "inputs": [
        {
          "internalType": "address",
          "name": "user",
          "type": "address"
        }
      ],
      "name": "getNextAvailableTime",
      "outputs": [
        {
          "internalType": "uint256",
          "name": "",
          "type": "uint256"
        }
      ],
      "stateMutability": "view",
      "type": "function"
    },
    {
      "inputs": [
        {
          "internalType": "address",
          "name": "",
          "type": "address"
        }
      ],
      "name": "lastFaucetTime",
      "outputs": [
        {
          "internalType": "uint256",
          "name": "",
          "type": "uint256"
        }
      ],
      "stateMutability": "view",
      "type": "function"
    },
    {
      "inputs": [],
      "name": "owner",
      "outputs": [
        {
          "internalType": "address",
          "name": "",
          "type": "address"
        }
      ],
      "stateMutability": "view",
      "type": "function"
    },
    {
      "inputs": [],
      "name": "renounceOwnership",
      "outputs": [],
      "stateMutability": "nonpayable",
      "type": "function"
    },
    {
      "inputs": [
        {
          "internalType": "address[]",
          "name": "_tokens",
          "type": "address[]"
        },
        {
          "internalType": "uint256[]",
          "name": "_amounts",
          "type": "uint256[]"
        }
      ],
      "name": "setTokensAndAmounts",
      "outputs": [],
      "stateMutability": "nonpayable",
      "type": "function"
    },
    {
      "inputs": [
        {
          "internalType": "uint256",
          "name": "",
          "type": "uint256"
        }
      ],
      "name": "tokens",
      "outputs": [
        {
          "internalType": "address",
          "name": "",
          "type": "address"
        }
      ],
      "stateMutability": "view",
      "type": "function"
    },
    {
      "inputs": [
        {
          "internalType": "address",
          "name": "newOwner",
          "type": "address"
        }
      ],
      "name": "transferOwnership",
      "outputs": [],
      "stateMutability": "nonpayable",
      "type": "function"
    }
  ],
  "bytecode": "0x6080346100bb57601f61096638819003918201601f19168301916001600160401b038311848410176100c0578084926020946040528339810103126100bb57516001600160a01b0390818116908190036100bb5780156100a257600080546001600160a01b03198116831782556040519316907f8be0079c531659141344cd1fd0a4f28419497f9722a3daafe3b4186f6b6457e09080a361088f90816100d78239f35b604051631e4fbdf760e01b815260006004820152602490fd5b600080fd5b634e487b7160e01b600052604160045260246000fdfe60406080815260048036101561001457600080fd5b600091823560e01c806345f0a44f146107235780634e71d92d146104be5780634f64b2be1461047d578063715018a6146104205780637bc1f6cc146103e65780638da5cb5b146103be57806396a5cabe14610360578063a2724a4d1461033e578063f2fde38b146102b55763fdfd62b21461008e57600080fd5b346102b157806003193601126102b15767ffffffffffffffff82358181116102ad576100bd90369085016107e0565b939060249283358181116102a9576100d890369085016107e0565b9690956100e361082d565b87820361027d575081811161026b5768010000000000000000928382116102595760025482600255808310610223575b509088915b8183106101da5750505085116101c85784116101b757505060035482600355808310610181575b50825b82811061014d578380f35b60019060208335930192817fc2575a0e9e593c00f959f8c92f12db2869c3395a3b0502d05e2516446f71f85b015501610142565b6101b190837fc2575a0e9e593c00f959f8c92f12db2869c3395a3b0502d05e2516446f71f85b9182019101610816565b3861013f565b634e487b7160e01b85526041905283fd5b50634e487b7160e01b85526041905283fd5b8035926001600160a01b038416840361021f5760206001920193817f405787fa12a823e0f2b7631cc41b3ba8828b3321ca811111fa75cd3aa3bb5ace01550191610118565b8a80fd5b61025390837f405787fa12a823e0f2b7631cc41b3ba8828b3321ca811111fa75cd3aa3bb5ace9182019101610816565b38610113565b634e487b7160e01b8952604185528589fd5b634e487b7160e01b8852604184528488fd5b5162461bcd60e51b81526020818601526008818701526709ad2e6dac2e8c6d60c31b6044820152606490fd5b8780fd5b8480fd5b8280fd5b50346102b15760203660031901126102b1576001600160a01b038235818116939192908490036102ad576102e761082d565b831561032857505082546001600160a01b0319811683178455167f8be0079c531659141344cd1fd0a4f28419497f9722a3daafe3b4186f6b6457e08380a380f35b51631e4fbdf760e01b8152908101849052602490fd5b83823461035c578160031936011261035c5760209051620151808152f35b5080fd5b5082903461035c57602036600319011261035c5782356001600160a01b038116908190036102b1578252600160205280822054916201518083018093116103ab576020838351908152f35b634e487b7160e01b815260118452602490fd5b83823461035c578160031936011261035c57905490516001600160a01b039091168152602090f35b5090346102b15760203660031901126102b157356001600160a01b038116908190036102b157828291602094526001845220549051908152f35b833461047a578060031936011261047a5761043961082d565b80546001600160a01b03198116825581906001600160a01b03167f8be0079c531659141344cd1fd0a4f28419497f9722a3daafe3b4186f6b6457e08280a380f35b80fd5b5090346102b15760203660031901126102b157359160025483101561047a57506104a86020926107a9565b905491519160018060a01b039160031b1c168152f35b50346102b157826003193601126102b157338352600160209260018452828520546201518081018091116107105742106106db57849392919084825b61053b575b5050507f5d4f415c63cd8a5874d9d291cdd64cec37e5dc236d90d659c958d109d78074b39033845260018352428185205551914283523392a280f35b6002548110156106d65761054e816107a9565b90546003916001600160a01b039190831b1c811661056b8461075c565b905490841b1c813b156106d25787516340c10f1960e01b81523387820190815260208101929092529a8a928c928390036040019183915af1806106a7575b88995015600014610699578691610603916105c3856107a9565b905490831b1c16906105d48561075c565b9054895163a9059cbb60e01b8152338982019081529290931b1c602082015290998a9384928391604090910190565b03925af195861561068f5783949596610625575b5082905b01869594936104fa565b909250853d8711610688575b601f8101601f1916820167ffffffffffffffff811183821017610675578791839188528101031261067157518015150361066d57829138610617565b8580fd5b8680fd5b634e487b7160e01b895260418452602489fd5b503d610631565b84513d89823e3d90fd5b50508293949550829061061b565b67ffffffffffffffff8a116106bf57889987526105a9565b634e487b7160e01b895260418552602489fd5b8980fd5b6104ff565b825162461bcd60e51b8152908101849052600f60248201526e436f6f6c646f776e2061637469766560881b6044820152606490fd5b634e487b7160e01b865260118252602486fd5b5090346102b15760203660031901126102b157359160035483101561047a575061074e60209261075c565b90549060031b1c9051908152f35b6003548110156107935760036000527fc2575a0e9e593c00f959f8c92f12db2869c3395a3b0502d05e2516446f71f85b0190600090565b634e487b7160e01b600052603260045260246000fd5b6002548110156107935760026000527f405787fa12a823e0f2b7631cc41b3ba8828b3321ca811111fa75cd3aa3bb5ace0190600090565b9181601f840112156108115782359167ffffffffffffffff8311610811576020808501948460051b01011161081157565b600080fd5b818110610821575050565b60008155600101610816565b6000546001600160a01b0316330361084157565b60405163118cdaa760e01b8152336004820152602490fdfea26469706673582212207d2a26f23bb3c91de63b1e40096a2884552c0a796c2140b45c56b7a923260cba64736f6c63430008180033",
  "linkReferences": {},
  "deployedLinkReferences": {}
}