{
  "_format": "hh-sol-artifact-1",
  "contractName": "ArcPoints",
  "sourceName": "contracts/ArcPoints.sol",
  "abi": [
    {
      "inputs": [
        {
          "internalType": "address",
          "name": "initialOwner",
          "type": "address"
        }
      ],
      "stateMutability": "nonpayable",
      "type": "constructor"
    },
    {
      "inputs": [
        {
          "internalType": "address",
          "name": "owner",
          "type": "address"
        }
      ],
      "name": "OwnableInvalidOwner",
      "type": "error"
    },
    {
      "inputs": [
        {
          "internalType": "address",
          "name": "account",
          "type": "address"
        }
      ],
      "name": "OwnableUnauthorizedAccount",
      "type": "error"
    },
    {
      "anonymous": false,
      "inputs": [
        {
          "indexed": true,
          "internalType": "address",
          "name": "user",
          "type": "address"
        },
        {
          "indexed": false,
          "internalType": "uint256",
          "name": "timestamp",
          "type": "uint256"
        }
      ],
      "name": "CheckedIn",
      "type": "event"
    },
    {
      "anonymous": false,
      "inputs": [
        {
          "indexed": true,
          "internalType": "address",
          "name": "previousOwner",
          "type": "address"
        },
        {
          "indexed": true,
          "internalType": "address",
          "name": "newOwner",
          "type": "address"
        }
      ],
      "name": "OwnershipTransferred",
      "type": "event"
    },
    {
      "anonymous": false,
      "inputs": [
        {
          "indexed": true,
          "internalType": "address",
          "name": "user",
          "type": "address"
        },
        {
          "indexed": false,
          "internalType": "uint256",
          "name": "amount",
          "type": "uint256"
        },
        {
          "indexed": false,
          "internalType": "string",
          "name": "reason",
          "type": "string"
        }
      ],
      "name": "PointsEarned",
      "type": "event"
    },
    {
      "inputs": [],
      "name": "CHECK_IN_POINTS",
      "outputs": [
        {
          "internalType": "uint256",
          "name": "",
          "type": "uint256"
        }
      ],
      "stateMutability": "view",
      "type": "function"
    },
    {
      "inputs": [],
      "name": "COOLDOWN",
      "outputs": [
        {
          "internalType": "uint256",
          "name": "",
          "type": "uint256"
        }
      ],
      "stateMutability": "view",
      "type": "function"
    },
    {
      "inputs": [],
      "name": "checkIn",
      "outputs": [],
      "stateMutability": "nonpayable",
      "type": "function"
    },
    {
      "inputs": [],
      "name": "getLeaderboard",
      "outputs": [
        {
          "internalType": "address[]",
          "name": "",
          "type": "address[]"
        },
        {
          "internalType": "uint256[]",
          "name": "",
          "type": "uint256[]"
        }
      ],
      "stateMutability": "view",
      "type": "function"
    },
    {
      "inputs": [
        {
          "internalType": "address",
          "name": "user",
          "type": "address"
        }
      ],
      "name": "getUserPoints",
      "outputs": [
        {
          "internalType": "uint256",
          "name": "",
          "type": "uint256"
        }
      ],
      "stateMutability": "view",
      "type": "function"
    },
    {
      "inputs": [
        {
          "internalType": "address",
          "name": "",
          "type": "address"
        }
      ],
      "name": "isUser",
      "outputs": [
        {
          "internalType": "bool",
          "name": "",
          "type": "bool"
        }
      ],
      "stateMutability": "view",
      "type": "function"
    },
    {
      "inputs": [],
      "name": "owner",
      "outputs": [
        {
          "internalType": "address",
          "name": "",
          "type": "address"
        }
      ],
      "stateMutability": "view",
      "type": "function"
    },
    {
      "inputs": [
        {
          "internalType": "address",
          "name": "user",
          "type": "address"
        },
        {
          "internalType": "uint256",
          "name": "points",
          "type": "uint256"
        },
        {
          "internalType": "string",
          "name": "reason",
          "type": "string"
        }
      ],
      "name": "recordActivity",
      "outputs": [],
      "stateMutability": "nonpayable",
      "type": "function"
    },
    {
      "inputs": [],
      "name": "renounceOwnership",
      "outputs": [],
      "stateMutability": "nonpayable",
      "type": "function"
    },
    {
      "inputs": [
        {
          "internalType": "address",
          "name": "newOwner",
          "type": "address"
        }
      ],
      "name": "transferOwnership",
      "outputs": [],
      "stateMutability": "nonpayable",
      "type": "function"
    },
    {
      "inputs": [
        {
          "internalType": "uint256",
          "name": "",
          "type": "uint256"
        }
      ],
      "name": "userList",
      "outputs": [
        {
          "internalType": "address",
          "name": "",
          "type": "address"
        }
      ],
      "stateMutability": "view",
      "type": "function"
    },
    {
      "inputs": [
        {
          "internalType": "address",
          "name": "",
          "type": "address"
        }
      ],
      "name": "users",
      "outputs": [
        {
          "internalType": "uint256",
          "name": "totalPoints",
          "type": "uint256"
        },
        {
          "internalType": "uint256",
          "name": "lastCheckIn",
          "type": "uint256"
        },
        {
          "internalType": "uint256",
          "name": "totalSwaps",
          "type": "uint256"
        },
        {
          "internalType": "uint256",
          "name": "totalLiquidityAdded",
          "type": "uint256"
        }
      ],
      "stateMutability": "view",
      "type": "function"
    }
  ],
  "bytecode": "0x6080346100bb57601f61091238819003918201601f19168301916001600160401b038311848410176100c0578084926020946040528339810103126100bb57516001600160a01b0390818116908190036100bb5780156100a257600080546001600160a01b03198116831782556040519316907f8be0079c531659141344cd1fd0a4f28419497f9722a3daafe3b4186f6b6457e09080a361083b90816100d78239f35b604051631e4fbdf760e01b815260006004820152602490fd5b600080fd5b634e487b7160e01b600052604160045260246000fdfe6080604081815260048036101561001557600080fd5b600092833560e01c908163183ff08514610573575080634209fff1146105355780636d763a6e146103ed578063715018a61461039357806387a3fb571461026b5780638da5cb5b146102435780639f4216e814610200578063a2724a4d146101e2578063a87430ba14610188578063aeefe31f14610150578063ca774cba146101305763f2fde38b146100a757600080fd5b3461012c57602036600319011261012c576100c06106c7565b906100c96107d9565b6001600160a01b0391821692831561011657505082546001600160a01b0319811683178455167f8be0079c531659141344cd1fd0a4f28419497f9722a3daafe3b4186f6b6457e08380a380f35b51631e4fbdf760e01b8152908101849052602490fd5b8280fd5b50503461014c578160031936011261014c576020905160328152f35b5080fd5b50503461014c57602036600319011261014c5760209181906001600160a01b036101786106c7565b1681526001845220549051908152f35b50503461014c57602036600319011261014c5760809181906001600160a01b036101b06106c7565b168152600160205220908154916001810154916003600283015492015492815194855260208501528301526060820152f35b50503461014c578160031936011261014c5760209051620151808152f35b503461012c57602036600319011261012c573591600254831015610240575061022a6020926106e2565b905491519160018060a01b039160031b1c168152f35b80fd5b50503461014c578160031936011261014c57905490516001600160a01b039091168152602090f35b5091903461014c57606036600319011261014c576102876106c7565b9060243567ffffffffffffffff60443581811161038f573660238201121561038f578087013591821161038f57366024838301011161038f576102c86107d9565b6001600160a01b0385168087526003602052848720805491969060ff831615610375575b5050508486526001602052838620805490848201809211610362579260247fb51b16cb4103a8ce441e52afe5cfabab49df83ba6b570adcde7724f975bdf7d0969593829360609655828751978896875280602088015286015201848401378181018301879052601f01601f19168101030190a280f35b634e487b7160e01b885260118952602488fd5b60016103879360ff191617905561072f565b3880806102ec565b8580fd5b83346102405780600319360112610240576103ac6107d9565b80546001600160a01b03198116825581906001600160a01b03167f8be0079c531659141344cd1fd0a4f28419497f9722a3daafe3b4186f6b6457e08280a380f35b82843461024057806003193601126102405760025461041361040e826107ad565b610787565b91818352610420826107ad565b91602080850191601f1980950136843761043c61040e826107ad565b90808252610449816107ad565b8284019601368737845b8181106104d4575050865196879681880191885251809152606087019390855b8181106104b457505050858303868301525180835291810193925b82811061049d57505050500390f35b83518552869550938101939281019260010161048e565b82516001600160a01b031686528998509484019491840191600101610473565b806104e86001929a9495979698999a6106e2565b8b61050384868060a01b03809554600395861b1c16926107c5565b5261050d836106e2565b9054911b1c1686528187528386205461052682876107c5565b52019796959394929197610453565b50503461014c57602036600319011261014c5760209160ff9082906001600160a01b036105606106c7565b1681526003855220541690519015158152f35b849150833461012c578260031936011261012c57338352600160209281845281838620015462015180810180911161066957421061069457503384526003835281842081815460ff81161561067c575b5050503384528083528184208054906032820180921161066957600e94959650553385528084524290828620015580514281527fdddb6e14f7f2101397a6526aab95e964de7f1f44ed06aa47a1c9a0e6b9924456843392a280805193603285528401528201526d2230b4b63c9021b432b1b596b4b760911b60608201527fb51b16cb4103a8ce441e52afe5cfabab49df83ba6b570adcde7724f975bdf7d060803392a280f35b634e487b7160e01b865260118752602486fd5b60ff191617905561068c3361072f565b8581816105c3565b62461bcd60e51b8152858101849052600f60248201526e436f6f6c646f776e2061637469766560881b6044820152606490fd5b600435906001600160a01b03821682036106dd57565b600080fd5b6002548110156107195760026000527f405787fa12a823e0f2b7631cc41b3ba8828b3321ca811111fa75cd3aa3bb5ace0190600090565b634e487b7160e01b600052603260045260246000fd5b600254680100000000000000008110156107715780600161075392016002556106e2565b60018060a09493941b038084549260031b9316831b921b1916179055565b634e487b7160e01b600052604160045260246000fd5b6040519190601f01601f1916820167ffffffffffffffff81118382101761077157604052565b67ffffffffffffffff81116107715760051b60200190565b80518210156107195760209160051b010190565b6000546001600160a01b031633036107ed57565b60405163118cdaa760e01b8152336004820152602490fdfea264697066735822122072d784059b256317d78fe30da9a890ec5e152e50c64c79c12d60d28cd8ec423164736f6c63430008180033",
  "linkReferences": {},
  "deployedLinkReferences": {}
}